:100000000C94C7080C94E4080C9463410C940342CC
:100010000C94E4080C94E4080C94E4080C94E408B0
:100020000C94151A0C94E4080C94FD1A0C94D41A30
:100030000C94E4080C94E4080C9456230C94361A9F
:100040000C94E4080C94E4080C94E4080C94E40880
:100050000C944C420C94E4080C94E4080C94E408CE
:100060000C94E4080C94E4080C94E4080C94E40860
:100070000C94E4080C94E4080C94E4080C94E40850
:100080000C94E4080C94E4080C94E4080C94E40840
:100090000C94E4080C94E4080C94E4080C94E40830
:1000A0000C94E4080C94E4080C94E4080C94E40820
:1000B0000C94E4080C94E4080C94E4080C942021BB
:1000C0000C94E4080C94E4080C94E4080C94E40800
:1000D0000C94E4080C94E4080C94E4080C94E408F0
:1000E0000C94E4080C94E4080C9417150C94CE12AC
:1000F0000C94E4080C94E4080C94E4080C94E408D0
:100100000C94E4080C94E4080C94371B0C94E40859
:100110000C94E4080C94E4080C94E4080C94E408AF
:100120000C94E4080C94E4080C94E4080C94E4089F
:100130000C94E4080C94E4080C94211B0C94E4083F
:100140000C94E4080C94E4080C94E4080C94E4087F
:100150000C94E4080C94E4080C94E4080C94E4086F
:100160000C94E4080C94E4080C94E4080C94E4085F
:100170000C94E4080C94E4080C94E4080C94E4084F
:100180000C94E4080C94E4080C94E4080C94E4083F
:100190000C94E4080C94E4080C94E4080C94E4082F
:1001A0000C94E4080C94E4080C94E4080C94E4081F
:1001B0000C94E4080C94E4080C94E4080C94E4080F
:1001C0000C94E4080C94E4080C94E4080C94E408FF
:1001D0000C94E4080C94E4080C94E4080C94E408EF
:1001E0000C94E4080C94E4080C94E4080C94E408DF
:1001F0000C94E4080C948D110C94BA116E616E008D
:10020000696E660000407A10F35A00A0724E180919
:100210000010A5D4E80000E87648170000E40B546D
:10022000020000CA9A3B000000E1F505000080963C
:100230009800000040420F000000A086010000006E
:10024000102700000000E803000000006400000028
:1002500000000A00000000000100000000002C76F1
:10026000D888DC674F0823DFC1DFAE59E1B1B7960C
:10027000E5E3E453C63AE651997696E8E6C2842669
:10028000EB898C9B62ED407C6FFCEFBC9C9F40F245
:10029000BAA56FA5F490055A2AF75C936B6CF967C1
:1002A0006DC11BFCE0E40D47FEF520E6B500D0ED86
:1002B000902E0300943577050080841E08000020EE
:1002C0004E0A000000C80C333333330F986E12838C
:1002D0001141EF8D2114893BE65516CFFEE6DB1860
:1002E000D1844B381BF77C1D901DA4BBE424203225
:1002F00084725E228100C9F124ECA1E53D270E0342
:100300005800530063006F00700065000000180380
:100310004700610062006F00740072006F006E00A1
:10032000690063007300000004030904090220004F
:1003300001010080FA0904000002FF000000070527
:100340008102400000070501024000001201100177
:10035000FF000040D016F906000101020001424DE5
:100360003E040000000000003E00000028000000E5
:1003700080000000400000000100010000000000BB
:100380000004000000000000000000000000000069
:100390000000000000000000FFFFFF00000000FE62
:1003A000010001FF01FE01FD02FE0002010001014A
:1003B000010201030202FF000000FE010001FF0133
:1003C000FE01FD02FEFF000000020100010101022A
:1003D00001030202FFF8FEFF07030307FFFEF80F09
:1003E0003F7F706060707F3F0F0010181CFEFFFFA2
:1003F000000000000000007F7F7F0000000C0E0F57
:10040000070383C7FFFE7C70787C7E6F6763616043
:10041000600C0E0FC7C3E7FFFEBC00183878706091
:1004200060717F3F1F0080C0F0781EFFFFFF000E4D
:100430000F0F0D0C0C7F7F7F0CF0FFFF7F6363E3DA
:10044000E3C3830C3C7C706060707F3F1FF8FEFF4D
:10045000C7C3C3C7CF8E0C0F3F7F716060717F3FF2
:100460001F03030383E3FB7F1F070300007C7F7FE1
:1004700003000000001C3EFFE7C3C3E7FF3E1C1E55
:100480003F7F736161737F3F1E7CFEFFC78383C71D
:10049000FFFEF8183879716161717F3F0F103E10CF
:1004A00010101E300C02382038283C08050F0400BC
:1004B0000038180838300C02283E0018201838265A
:1004C00038000000002E000600063E143E143F0ACD
:1004D000120824142A340006001C2200221C001CCE
:1004E0001C1C081C084020000808080020001008F8
:1004F000041C221C243E20322A24222A140E083EE8
:100500002E2A123E2A3A023A063E2A3E2E2A3E0061
:100510001400201400081422141414221408022AAF
:10052000041C262E3C0A3C3E2A141C22223E221C7D
:100530003E2A223E0A021C221A3E083E223E221079
:10054000201E3E08363E20203E043E3E023E3E2215
:100550003E3E0A041C223C3E0A34242A12023E0279
:100560003E203E1E201E3E103E3608360E300E3215
:100570002A26003E22040810223E000402044040C5
:1005800040020400342C383E241818242418243E39
:1005900018342C083C0A58543C3E0438003A0040B9
:1005A0003A003E1824001E203C0C3C3C0438182421
:1005B000187C241818247C380404283C14043E2495
:1005C0003C203C1C201C3C303C2418240C503C3467
:1005D0003C2C0836220036002236080406023E3E35
:1005E0003E474F00444953434F4E4E4543542043EA
:1005F00048312C434832004F464653455420202072
:1006000020202020534C4545503A202020202020F7
:10061000524553544F524500582000485A204D41EE
:100620005800312053544F50424954003220535403
:100630004F50424954004E4F2050415249545900A6
:100640004556454E20504152495459004F4444208C
:10065000504152495459004D4F56452D20202020DD
:10066000202020204D4F56452B00534156494E47E0
:100670002E2E2E00EB2BEC2BEF2BEE2BDD2BE52B78
:10068000E62B011020304000E0C0A080C0E0002038
:1006900040014080C0FF004080C0FFFCE0C0A0825D
:1006A000FCE0C0A0823132303020200032343030C3
:1006B00020200034383030202000393630302020DF
:1006C00000313932303020003338343030200035BA
:1006D0003736303020003131353230300020203193
:1006E0004D003530304B003235304B003132354B18
:1006F000002036324B002033314B002031364B0086
:100700002020384B002020344B00312E364B002067
:100710003830300020383030002033323000203183
:1007200036300020203830002020333200202031A5
:100730003600202020380020332E320020312E3683
:100740000020302E3800302E3332002020381700A1
:10075000203136170020333217002036341700318D
:100760003238170032353617003530301700203157
:100770001A1B0020321A1B0020351A1B0031301AB8
:100780001B0032301A1B0035301A1B0020302E316E
:100790000020302E320020302E3500202020310065
:1007A0002020203200202020350020203130002061
:1007B000203230002020353000352E313200322EEC
:1007C000353600312E323800302E363400302E339C
:1007D0003200302E31360038301A1B000F0C0D0E4F
:1007E00000101B121000111500002210111311002F
:1007F00029140016110019001D1E00202100000000
:100800000009040000001604191408080816160F41
:1008100016292929190C0D060606060606000001F0
:1008200002030405060708090A0A0B0C0D0E0F1037
:10083000112122231F20121314151617151618192B
:100840001A1B1C1D1D1E24204348204F4E20202013
:10085000002020202020204741494E2D202020200C
:10086000002020204741494E2B004C4F4749432050
:100870004F4E2000202020202053454C454354203B
:100880002020002050524F544F434F4C00204E4FD9
:10089000524D414C202020002020202053494E471B
:1008A0004C45202020002043495243554C415200E2
:1008B000204E4F524D414C2020200020202020531C
:1008C000494E474C452020200020202020415554EF
:1008D0004F20002056435552534F522000202020D5
:1008E000484355522043483120200020204843559A
:1008F0005220434832002048414D4D494E47202068
:1009000020002020202048414E4E20202000202082
:10091000424C41434B4D414E002020434831202062
:10092000202000202020202020204348322020208A
:1009300020200020204C4F474943200020475249A7
:1009400044202020002020464C4950204449535048
:100950004C415920002020494E5645525420002039
:1009600020564443202020202020002020205620F4
:10097000502D50202000204652455155454E435998
:100980002000202053494E452020202000202020F8
:1009900020535155415245202000202054524941B6
:1009A0004E474C4500504F534954494F4E2020204C
:1009B00000202020494E564552542020200020205F
:1009C00020204D4154482000504F534954494F4E28
:1009D00020202000202020494E564552542020003F
:1009E000202020544849434B3020002043483120E8
:1009F00000202020202020202020204348322000DA
:100A000020202020202020204C4F474943005452D2
:100A1000494754595045202000202020545249472E
:100A200053524320202000204D4F524554524947F5
:100A3000002053434F50452020202000202020201C
:100A40004D455445522020200020202020202046C3
:100A500046542000204951204646542020200020A2
:100A6000204646542057494E444F5720200020200E
:100A700020204C4F472000435552534F52532000E3
:100A80002020202020444953504C41592020002050
:100A90002020202020204157470057415645205410
:100AA00059504520200020202053574545502020F4
:100AB0002000204652455155454E43590020574984
:100AC0004E444F57202020002020202045444745F9
:100AD000202020200020202020534C4F5045200073
:100AE00020204155544F2020202020002020205439
:100AF0005241434B20202000205245464552454E4E
:100B00004345002020414C4C202020202000202064
:100B100020204249545F3020202020002020202027
:100B20004249545F3100204249545F322020202046
:100B300000202020204249545F3320202020002024
:100B40002020204249545F3400204249545F352020
:100B500020202000202020204249545F36202020E1
:100B60002000202020204249545F3700204558545F
:100B700020545249472000202020204249545F3011
:100B80002020202000202020204249545F310020D6
:100B9000504152414C4C454C2020002020205345D0
:100BA0005249414C20200020202020202050554C2C
:100BB0004C002049324320202020202000202020EB
:100BC0002020554152542020202000202020202089
:100BD0005350492000204E4F2050554C4C202000AF
:100BE00020202050554C4C2055502020002050559E
:100BF0004C4C20444F574E002050455253495354BB
:100C0000454E5420200020204C494E4520202000F5
:100C1000202020202053484F5720002043504F4C85
:100C20002020202020002020202043504841202048
:100C300020200020494E5645525420535300205343
:100C400055425452414354200020204D554C5449A4
:100C5000504C592020002020415645524147452004
:100C600000414D504C4954554445200020204455E6
:100C70005459204359434C4520002020204F4646DC
:100C80005345540020524F4C4C202020202000205F
:100C90002020454C415354494320200020205859DE
:100CA000204D4F44452000545249474D4F44452064
:100CB00020002020504F53545452494720002020F8
:100CC0002054524947484F4C44002045585020205A
:100CD0002020202000202020204E4F495345202056
:100CE0002000202020435553544F4D2000205350C6
:100CF0004545442020202000202020204D4F444501
:100D000020202020002020202052414E4745200056
:100D10005357204652455120202020002020535771
:100D200020414D502020200020205357204455546E
:100D30005920002020444F574E2020202000202002
:100D400050494E47504F4E4720202000202041431D
:100D500043454C000000C800900120034006800C71
:100D60000019D430190032007D00FA00F401E204C9
:100D7000C4098813D430190032007D00FA00F40150
:100D8000E20400C2EB0B00E1F50580F0FA024078C6
:100D90007D0120BCBE00105E5F0000D4300000105A
:100DA0005E5F0008AF2F00D0121300688909006849
:100DB00089090090D0030048E8010024F40000A84D
:100DC000610000D43000006A180000C4090000E28D
:100DD00004000071020000FA00000100020004009B
:100DE0000800140028005000C80090012003D0071C
:100DF000F900F301E703C30987138B959FA9B2BBE1
:100E0000C3CBD3DAE1E8EEF4FA00050B1014191D98
:100E10002125292D3134373A3D404345484A4C4F2E
:100E200051535557585A5C5D5F60616364656667EE
:100E300068696A6B6C6D6E6F6F70717172737374C9
:100E400074757576767677777878787979797A7A2D
:100E50007A7A7B7B7B7B7B7C7C7C7C7C7C7D7D7DD8
:100E60007D7D7D7D7E7E7E7E7E7E7E7E7E7E7E7EA6
:100E70007F7F7F7F7F7F7F7F7F7F0000000000007C
:100E80000000000000000101010101020202030351
:100E9000030404040505060607070809090A0B0CE4
:100EA0000C0D0E0F101112131415161718191A1C09
:100EB0001D1E202122242527282A2B2D2F303234B5
:100EC0003537393B3C3E4042434547494B4D4E50F8
:100ED00052545657595B5C5E606163656668696B26
:100EE0006C6E6F7071737475767778797A7B7B7CB2
:100EF0007D7D7E7E7F7F7F7F7F7F00000000000002
:100F000000000101010202030304040506060708AC
:100F1000090A0A0B0C0D0E0F1011121415161718D2
:100F20001A1B1C1D1F202223242627292A2C2D2F83
:100F30003032333536383A3B3D3E404143454648F2
:100F4000494B4C4E4F5153545657585A5B5D5E5F58
:100F5000616264656667696A6B6C6D6E6F707172F1
:100F600073747576777878797A7A7B7B7C7C7D7DF3
:100F70007E7E7E7F7F7F7F7F7F7F090909090A0A46
:100F80000A0A0A0B0B0B0C0C0D0D0E0E0F10101194
:100F90001213131415161718191A1B1C1D1E1F20C7
:100FA000212324252627292A2B2D2E2F3132343593
:100FB0003638393B3C3E3F404243454648494B4C1E
:100FC0004D4F505253555657595A5B5D5E5F6162A3
:100FD0006364666768696A6B6C6E6F707172727356
:100FE00074757677777879797A7B7B7C7C7D7D7E6A
:100FF0007E7E7E7F7F7F7F7F7F7F7EFF819191F1ED
:10100000600060F49494FCF800FFFF8484FC780096
:1010100078FC8484FC7800047FFF848400FCFC0856
:101020000C0C0078FC8484FC7800F8FC0404FCF8C8
:1010300000FDFD0078FC8484840098BCB4F464084E
:101040000878404078080840407808087840407E9A
:1010500042424242427E1806067F7F7F7F7F7F7F2B
:10106000FFFF7F0AFCFFFFFFFFFF4002FFFF7FFF44
:1010700005FFFFFFFFBE000101402060423E423EEF
:101080000080000080A06018A0E0000001FF108038
:10109000018000E0AB000006010108FF8000C129CB
:1010A000001C4046323A200046313A2000531C1DB5
:1010B0001E00561C1D1E00205600201A1B560053F1
:1010C000544F50004B434E54004B485A001F563D5E
:1010D000002031161F543D00010000000A000000EE
:1010E00064000000E803000010270000A086010053
:1010F00040420F0080969800465720322E3435002B
:1011000053504920534E49464645520A42495434A9
:101110003A2F53530A424954353A4D4F53490A42E4
:101120004954363A4D49534F0A424954373A53438A
:101130004B005541525420534E49464645520A42AF
:101140004954323A525820424954333A545800498B
:10115000324320534E49464645520A424954303A9A
:1011600053444120424954313A53434C00296814B6
:1011700034091A040D820640032A021501FDEDDC34
:10118000CCBCACA8A40301FDF5E5C56E1700112485
:101190001FBECFEFCDBFDFE2DEBF10E2A0E0B0E2C6
:1011A000EEEDFBE802C005900D92AE32B107D9F723
:1011B0002FE2AEE2B0E201C01D92A530B207E1F726
:1011C0000E948D1C0C945D450C940000FF7F000074
:1011D000F57F2403D87F4806A67F6A09617F8C0CBF
:1011E000097FAB0F9C7EC8121D7EE215897DF91820
:1011F000E37C0B1C297C1A1F5C7B23227C7A28252C
:101200008979262884781F2B6B77112E4176FB3045
:101210000475DF33B573BA3654728C39E270563CBC
:101220005E6F173FC96DCE41236C7A446D6A1C47CF
:10123000A668B449CF663F4CE864BF4EF1623351B3
:10124000EB609B53D75EF555B35C4258825A825A85
:101250004258B35CF555D75E9B53EB603351F16256
:10126000BF4EE8643F4CCF66B449A6681C476D6A20
:101270007A44236CCE41C96D173F5E6F563CE270D5
:101280008C395472BA36B573DF330475FB3041764E
:10129000112E6B771F2B84782628897928257C7A54
:1012A00023225C7B1A1F297C0B1CE37CF918897DA7
:1012B000E2151D7EC8129C7EAB0F097F8C0C617FEE
:1012C0006A09A67F4806D87F2403F57F0000FF7FC8
:1012D000DCFCF57FB8F9D87F96F6A67F74F3617FC2
:1012E00055F0097F38ED9C7E1EEA1D7E07E7897D5B
:1012F000F5E3E37CE6E0297CDDDD5C7BD8DA7C7A13
:10130000DAD78979E1D48478EFD16B7705CF41764C
:1013100021CC047546C9B57374C65472AAC3E27071
:10132000E9C05E6F32BEC96D86BB236CE4B86D6ADE
:101330004CB6A668C1B3CF6641B1E864CDAEF162E8
:1013400065ACEB600BAAD75EBEA7B35C7EA5825AE4
:101350004DA3425829A1F555159F9B530F9D33511D
:10136000189BBF4E31993F4C5A97B44993951C47EF
:10137000DD937A443792CE41A290173F1E8F563CA0
:10138000AC8D8C394B8CBA36FC8ADF33BF89FB308D
:101390009588112E7C871F2B778626288485282503
:1013A000A4842322D7831A1F1D830B1C7782F9186C
:1013B000E381E2156481C812F780AB0F9F808C0C2B
:1013C0005A806A09288048060B802403008040C0A8
:1013D00020A060E0109050D030B070F0088848C86D
:1013E00028A868E8189858D838B878F8048444C40D
:1013F00024A464E4149454D434B474F40C8C4CCC0D
:101400002CAC6CEC1C9C5CDC3CBC7CFC028242C2C4
:1014100022A262E2129252D232B272F20A8A4ACA0C
:101420002AAA6AEA1A9A5ADA3ABA7AFA068646C6AC
:1014300026A666E6169656D636B676F60E8E4ECEAC
:101440002EAE6EEE1E9E5EDE3EBE7EFE018141C170
:1014500021A161E1119151D131B171F1098949C9DC
:1014600029A969E9199959D939B979F9058545C57C
:1014700025A565E5159555D535B575F50D8D4DCD7C
:101480002DAD6DED1D9D5DDD3DBD7DFD038343C334
:1014900023A363E3139353D333B373F30B8B4BCB7C
:1014A0002BAB6BEB1B9B5BDB3BBB7BFB078747C71C
:1014B00027A767E7179757D737B777F70F8F4FCF1C
:1014C0002FAF6FEF1F9F5FDF3FBF7FFF77278894AE
:1014D000881F771F881F771F672F71FD6250EFEC01
:1014E000F1E1E80FF61F849171FD819508953F9217
:1014F0002F925F924F927F926F929F928F92BF92A4
:10150000AF92DF92CF92FF92EF921F930F93DF93F0
:10151000CF93FC0181E090E0A0E8B0E004E0809F80
:101520006001909FD00C7C019F938F93EF01A09F4F
:10153000C00DD11DB09FD00DFF93EF93BB24AA2403
:101540009927008111811595079568817981759595
:101550006795A801061B170B460F571F4193519320
:1015600020813181359527956A817B8175956795B5
:10157000A901261B370B460F571F419351930F01AB
:10158000ECECF1E1EA0DFB1D4591559165917591EA
:10159000F001950320010C031001491E9C03590A18
:1015A000300C411C591ED803590A300C411C591EDD
:1015B000B70340012E033001891EBE03990A700C47
:1015C000811C991EFA03990A700C811C991E260C25
:1015D000371C481C591C49925992B50320012C0311
:1015E0001001491EBC03590A300C411C591EDA0374
:1015F000590A300C411C591E970340010E0330015B
:10160000891E9E03990A700C811C991EF803990A81
:10161000700C811C991E26183708480859084992F1
:101620005992AC0CBD1CB1FE8CCF04E0A09FC00D44
:10163000D11DE00DF11DB09FD00DF00D81E0E81A35
:10164000F90A09F07BCFEF91FF918F919F91880F5D
:10165000991FB695A795109609F060CFCF91DF91AD
:101660000F911F91EF90FF90CF90DF90AF90BF90C0
:101670008F909F906F907F904F905F902F903F90B2
:1016800008950002030405060708090A0B0C0D0E55
:101690000E0F3F922F925F924F927F926F929F9286
:1016A0008F92BF92AF921F93DF93CF935C01EB01B8
:1016B00060E470E0ECECF3E1992710E8449911271D
:1016C000A591BB27AA0FBB1FAA0FBB1FAA0DBB1D4D
:1016D0002D913D914D915D91B30320012A0310019D
:1016E000491EBA03590A300C411C591EBA03590A43
:1016F000300C411C591ED50340014C033001891E9A
:10170000DC03990A700C811C991EDC03990A700C89
:10171000811C991E260C371C481C591C66247724F2
:10172000882422273327442770E1220F331F441FC8
:10173000220C331C441C551C661C771C881C220C74
:10174000331C441C551C661C771C881C2615370549
:10175000480528F42395621A730A840A23957A951A
:1017600021F74695379527951124439B1FC0621793
:10177000730710F020E020C0261B370BFF93EF9378
:10178000E2E8F6E140EF37FD04C0221F331F40516D
:10179000FACF330F3695369536953695E30FF11D12
:1017A0005491450F342FEF91FF9106C0220F331F44
:1017B000220F331F08F43FEF39931A9509F080CFB9
:1017C000CF91DF911F91AF90BF908F909F906F90BE
:1017D0007F904F905F902F903F90089590E1699F88
:1017E000F0011124E078E80FE353FF4D677081E0CA
:1017F00001C0880F6A95EAF785930895E091CE2499
:10180000E395E093CE24EA95EE0FF091CD24F69582
:10181000E795E353FF4D859308958058860F1BF499
:101820008FE767FD80E880580895EAE1FCE0E80F63
:10183000F11D099408C010C018C020C028C030C0D5
:1018400038C040C048C058990895D099FCCF5899E5
:101850000895D09BFCCFC7C058990895D199FCCF6B
:1018600058990895D19BFCCFBEC058990895D2993C
:10187000FCCF58990895D29BFCCFB5C058990895D4
:10188000D399FCCF58990895D39BFCCFACC05899FD
:101890000895D499FCCF58990895D49BFCCFA3C048
:1018A00058990895D599FCCF58990895D59BFCCFA8
:1018B0009AC058990895D699FCCF58990895D69B07
:1018C000FCCF91C058990895D799FCCF58990895A5
:1018D000D79BFCCF88C058990895F599FCCF5899AB
:1018E0000895F59BFCCF7FC0E9E7FCE0E80FF11D10
:1018F000099408C010C018C020C028C030C038C02B
:1019000040C048C058990895D09BFCCF589908957D
:10191000D099FCCF68C058990895D19BFCCF5899B5
:101920000895D199FCCF5FC058990895D29BFCCF00
:1019300058990895D299FCCF56C058990895D39BD1
:10194000FCCF58990895D399FCCF4DC0589908956C
:10195000D49BFCCF58990895D499FCCF44C0589992
:101960000895D59BFCCF58990895D599FCCF3BC0DD
:1019700058990895D69BFCCF58990895D699FCCFD5
:1019800032C058990895D79BFCCF58990895D7999C
:10199000FCCF29C058990895F59BFCCF589908951C
:1019A000F599FCCF20C083580090240280151CF4C8
:1019B000589BFACF08958A5F0090240280159CF00E
:1019C000589BFACF08958D570090240280151CF083
:1019D000589BFACF089586500090240280151CF47D
:1019E000589BFACF089589E0809340085D9A80B1B2
:1019F0008B3058F484E100904C0800FEFCCF10922C
:101A0000000A8093010258995D98089583580090C8
:101A10002C0280151CF4589BFACF08958A5F009021
:101A20002C02801504F3589BFACF08958D5700902F
:101A30002C0280151CF0589BFACF08958650009018
:101A40002C02801584F6589BFACF08957F9300905E
:101A50002402709124020716072E24F0589BF9CF18
:101A60007F91089570912402071A8015072ED4F4EF
:101A7000589BF8CF7F9108957F9300902402709136
:101A800024027015072E24F0589BF9CF7F910895FA
:101A900070912402071A0816072E24F4589BF8CFD9
:101AA0007F9108957F919FCF7F9300902C0270913A
:101AB0002C020716072E24F0589BF9CF7F9108952A
:101AC00070912C02071A8015072E64F7589BF8CFE7
:101AD0007F9108957F9300902C0270912C027015D5
:101AE000072E24F0589BF9CF7F91089570912C0216
:101AF000071A0816072EB4F6589BF8CF7F91089561
:101B0000805860580090240280156CF206165CF232
:101B1000589BF8CF08958058605800902C0280158B
:101B200014F2061604F2589BF8CF0895A1E1B0E034
:101B3000ECE9FDE00C944B437C013B016A01FC01A4
:101B400016821782838181FF37C39E012F5F3F4F2B
:101B50004901F7019381F30193FD859193FF8191F1
:101B60003F01882309F424C3853239F493FD85911C
:101B700093FF81913F01853239F4B70190E00E94D3
:101B8000734456016501E5CF10E0312C20E020328E
:101B9000A0F48B3269F030F4803259F0833269F46A
:101BA00020612CC08D3239F0803339F4216026C099
:101BB0002260246023C0286021C027FD27C030EDAB
:101BC000380F3A3078F426FF06C0FAE01F9F300D38
:101BD0001124132F13C08AE0389E300D1124332EA8
:101BE00020620CC08E3221F426FDE2C2206406C0C1
:101BF0008C3611F4206802C0883641F4F30193FD5D
:101C0000859193FF81913F018111C1CF9BEB980F8B
:101C1000933018F42061805E06C09BE9980F9330E2
:101C200008F066C12F7E26FF16E02F73522E8536F0
:101C300019F42064522E08C0863621F4922F906841
:101C4000592E02C01111115057FE07C01C3350F419
:101C500022242394210E27E00BC0183038F027E00F
:101C600017E005C027E09CE3292E02C0212F212C7C
:101C70005601E4E0AE0EB11CF601608171818281F3
:101C80009381022DA4010E947C436C0129812C8741
:101C900020FF02C023FF06C051FC06C052FE06C052
:101CA00000E205C00DE203C00BE201C000E08C853C
:101CB0008C7019F001115DC29EC257FE10C02C0C31
:101CC0002C8524FF04C08A81813309F42A941214DC
:101CD00074F538E0321578F588E0282E2CC056FCD3
:101CE0002AC0812F90E08C159D059CF08CEFC816C2
:101CF0008FEFD80674F0952D9068592E0AC0E2E057
:101D0000F0E0EC0FFD1FE10FF11D8081803319F42D
:101D100011501111F4CF57FE0EC022242394210E2E
:101D2000812F90E0C816D9062CF41C1904C0222477
:101D3000239401C010E057FE06C01C141D0434F4A7
:101D4000C601019605C085E090E002C081E090E008
:101D500001110196112331F0212F30E02F5F3F4F09
:101D6000820F931F232D30E08217930714F4381A43
:101D700001C0312C852D897049F4332039F0B70129
:101D800080E290E00E9473443A94F7CF002329F058
:101D9000B701802F90E00E94734453FC09C03320A8
:101DA00039F0B70180E390E00E9473443A94F7CF92
:101DB00057FE4DC02601D7FE02C0412C512CC60152
:101DC0000196841995099401280F391F2D873E87A4
:101DD0009601221931092F87388B012F10E01195B8
:101DE000019511093FEF4316530629F4B7018EE21E
:101DF00090E00E947344C414D5044CF02F853889B8
:101E00002415350524F4ED85FE85808101C080E32D
:101E1000F1E04F1A51082D853E852F5F3F4F2D87EA
:101E20003E87401651062CF0B70190E00E947344A3
:101E3000D9CFC414D50441F49A81963320F4953354
:101E400019F43C8534FF81E3B70190E04EC08A81EC
:101E5000813319F02C852F7E2C87B70190E00E94EA
:101E60007344111105C054FC18C085E690E017C0FA
:101E7000B7018EE290E00E9473441E5F82E001E0B1
:101E8000080FF401E80FF11D8081B70190E00E9476
:101E90007344802F0113F3CFE6CF85E490E0B701C0
:101EA0000E947344D7FC06C0C114D10441F43C85A0
:101EB00034FF05C0D194C194D1088DE201C08BE2FA
:101EC000B70190E00E94734480E3EAE0CE16D104AB
:101ED0002CF08F5F9AE0C91AD108F7CFB70190E0D4
:101EE0000E947344B701C601C0960E94734456C154
:101EF000833631F0833779F0833509F058C021C03B
:101F00005601F2E0AF0EB11CF6018081898301E039
:101F100010E0640114C05601F2E0AF0EB11CF601EE
:101F2000C080D18026FF03C0612F70E002C06FEF38
:101F30007FEFC601298B0E9468448C0129892F7785
:101F400015C05601F2E0AF0EB11CF601C080D18081
:101F500026FF03C0612F70E002C06FEF7FEFC60164
:101F6000298B0E945D448C0129892068522E23FD13
:101F70001AC0832D90E008171907A8F4B70180E272
:101F800090E00E9473443A94F4CFF60157FC859197
:101F900057FE81916F01B70190E00E9473443110A8
:101FA0003A94015011090115110579F7F7C08436EB
:101FB00011F0893659F5560127FF09C0F4E0AF0E3C
:101FC000B11CF60160817181828193810AC0F2E0C7
:101FD000AF0EB11CF60160817181072E000C880BD9
:101FE000990B2F76522E97FF09C09095809570958A
:101FF00061957F4F8F4F9F4F2068522E2AE030E02F
:10200000A4010E94A344C82EC8183FC0022F8537E0
:1020100021F40F7E2AE030E01DC0097F8F3691F059
:1020200018F4883559F0C4C0803719F0883711F09A
:10203000BFC0006104FF09C0046007C024FF08C0DE
:10204000066006C028E030E005C020E130E002C0B4
:1020500020E132E0560107FF09C0F4E0AF0EB11CE9
:10206000F601608171818281938108C0F2E0AF0E38
:10207000B11CF6016081718180E090E0A4010E94B2
:10208000A344C82EC8180F77502E56FE0BC0052D3E
:102090000E7FC11650F454FE0AC052FC08C0052D34
:1020A0000E7E05C0DC2C052D03C0DC2C01C0D12E1A
:1020B00004FF0DC0FE01EC0DF11D8081803311F491
:1020C000097E09C002FF06C0D394D39404C0802FB8
:1020D000867809F0D39403FD11C000FF06C0D31425
:1020E00088F43C0C132D1D190EC0D31460F4B701F5
:1020F00080E290E00E947344D394F7CFD31418F495
:102100003D1802C01C2D312C04FF10C0B70180E324
:1021100090E00E94734402FF17C001FD03C088E7EE
:1021200090E002C088E590E0B7010CC0802F86786F
:1021300059F001FF02C08BE201C080E207FD8DE291
:10214000B70190E00E947344C11638F4B70180E3F0
:1021500090E00E9473441150F7CFCA94F401EC0D43
:10216000F11D8081B70190E00E947344C110F5CF4A
:1021700015C0F4E0F31560F584E0381A53FE1FC073
:10218000011127C03C8533FF2AC00CEF11E0852DDB
:102190008071582EF8018491811124C0332009F4F4
:1021A000F1CCB70180E290E00E9473443A94F6CFFC
:1021B000F7018681978126C08FEF9FEF23C0B7017B
:1021C00080E290E00E9473443A943110F8CFD8CF67
:1021D000312CB701802F90E00E947344D3CF00E0F0
:1021E00012E0D5CF51108052B70190E00E947344A5
:1021F0000F5F1F4FCFCF23E0231510F483E0BDCF37
:10220000312CC0CF6196E2E10C946443292F33272F
:102210002230310511F12330310559F021303105DB
:1022200009F190E080E030E020E0FA012083318382
:10223000089599278130910569F0009729F0029758
:1022400081F7EEEFF2E002C0E8E2F3E0849190E083
:102250009F01EBCFEEE0F3E0F9CF80E290E02CE2DB
:1022600033E0E3CF82E190E02CE433E0DECFE0E046
:10227000F0E28287938780858D7980870895CF9358
:10228000DF938AE10E945D1AC0ECD4E08AAF8BE153
:102290000E945D1A8BAF83E080934400E0E0F0E29F
:1022A000EE83FF831B82108293E491832AE830E25D
:1022B0002483358322E02087918728E430E2248735
:1022C000358792E2908F93EA918F2CEF3BE2248F37
:1022D000358F108A918B20ED34E2248B358B128A56
:1022E000138A20E031E0268B378B91EC988392E4BF
:1022F0009887898781E08983DF91CF910895FC01D8
:10230000962FA8E4B0E2915020F4862F90E00C9430
:10231000371184918D933196F6CF1F920F920FB69D
:102320000F9211242F933F934F935F936F937F935B
:102330008F939F93AF93BF93EF93FF938091C204CA
:1023400080FF04C01092C0040E943F118FEF809361
:10235000CA04FF91EF91BF91AF919F918F917F91AF
:102360006F915F914F913F912F910F900FBE0F9002
:102370001F9018951F920F920FB60F9211241F9362
:102380002F933F934F935F936F937F938F939F937D
:10239000AF93BF93EF93FF93CF93DF9300D0CDB76D
:1023A000DEB7E89A8091002084FF95C080918A2052
:1023B000807609F087C0E0918B20EA3008F042C0B7
:1023C000F0E0E15AFA4B0C941C4310924820109212
:1023D000492082E090E00E94371134C090E080E014
:1023E000FACF10918C201F77809100208D7E8093F2
:1023F000002090E080E00E9437118091082085FF46
:10240000FCCF1093C30482E0111183E080938820F5
:1024100019C0AE014F5F5F4F60918E2080918C207C
:1024200090918D200E940611009761F0609190209C
:10243000709191208617970708F4BC0189819A81D1
:102440000E947F11809100208D7C8093002010924B
:102450000804109209041092C50483E08093CC0410
:10246000E8980F900F90DF91CF91FF91EF91BF917E
:10247000AF919F918F917F916F915F914F913F911C
:102480002F911F910F900FBE0F901F901895809164
:1024900089208093482081E090E09DCF90E080E00B
:1024A0000E94371180918C2080938920809189200F
:1024B000882311F084E0AACF8091C3048111FACF60
:1024C00081E0A4CF803409F0BDCF80918B200E94A1
:1024D000F51290E080CF8091002085FF04C08091AC
:1024E00000208D7DB2CF8091102085FFB0CF10925B
:1024F00012201092132080E091E080931620909398
:10250000172080911020897C80931020A0CF9627DF
:10251000092E0294602D6F706927292F2025220F24
:10252000207E6227202D2927207F2695092E000C4A
:10253000221F9695969596959F7192279827862F9C
:10254000089588EA91E62091A10A27FF03C08091AF
:10255000A00A08952AE62A95F1F700C0019799F795
:1025600080E00895E0912E20909130209830E0F79F
:1025700091E09E0FF0E0E25DFF4D8383F89480913F
:1025800030208F5F8093302083E18093A30A78947A
:10259000983008F090E090932E2008958F938FB795
:1025A0008F939F93EF93FF93809130208823C9F0FE
:1025B000815080933020E0912F2081E08E0FF0E059
:1025C000E25DFF4D93819093A00A883008F080E08F
:1025D00080932F20FF91EF919F918F918FBF8F91CB
:1025E000189580E18093A30AF5CF7F928F929F92F6
:1025F000AF92BF92CF92DF92EF92FF920F931F9311
:10260000CF93DF9310920804109209049091C204B2
:1026100091FDD6C0EC98893609F4BCC108F0A4C07D
:10262000843609F4A3C108F0E7C0813609F4ADC0CF
:1026300008F092C0833409F095C081E00E94B21284
:1026400081E00E94B2128EEF0E94B2120EE513E0FA
:102650003CE9C32E33E0D32EC0E0D0E0F801F49083
:102660006F2DCE010E948712EC018F2D0E94B212B5
:102670000F5F1F4FC016D10689F790EFC92E93E068
:10268000D92E1EE3AA24A3942FE3B22E77247394A9
:102690008B2D8770872C01C0880C8A95EAF7C601BC
:1026A0008078DC01A353BF4D7D0180E1982EF701B6
:1026B00088E000E0000F9191982121E009F020E0EE
:1026C000022B8150B9F7602FCE010E948712EC01D6
:1026D000802F0E94B2121F5F1038C1F48D2F0E940C
:1026E000B2128C2F0E94B2120E94A1128630D1F534
:1026F000A39481E00E94B2128A2D0E94B2128A2D08
:1027000080950E94B212C0E0D0E010E09A94F8E008
:10271000EF0EF11C9110CBCFBA9420E1C21AD10870
:102720003FEFB312B5CF17FF78C18D2F0E94B212C1
:102730008C2F0E94B2120E94A112863099F484E07C
:102740000E94B2120E94A112853161F484E00E94BD
:10275000B2120E94A11206C0823609F4BBC08336B1
:1027600009F4F2C080E01EC0813709F434C108F0DA
:1027700063C08B3609F41EC108F410C18D3609F40C
:102780001EC1803779F76798EDCFEBEFF0E1A8E451
:10279000B0E28CE490E224912D9331968A179B0746
:1027A000D1F784E0DF91CF911F910F91FF90EF90CF
:1027B000DF90CF90BF90AF909F908F907F900895C3
:1027C000893609F4E7C030F5843609F4CFC0A0F4A7
:1027D0008136D9F208F42ECF823609F487C0C0EFD3
:1027E000DBE2833609F0BECF0E94A11289932BE26F
:1027F000C43FD207C9F7B8C0863609F4C5C008F48B
:10280000B9C0873609F4C3C0883609F0ABCF589AEF
:102810005D9AA8CF813709F4DEC070F48B3609F4D5
:10282000C9C008F0ABCF0E94A1128093DE2B0E949A
:10283000A1128093DF2BBAC0873709F4CEC0D8F439
:10284000853709F08FCFE8E4F0E290E080E0DC012A
:102850002D91CD0121931C97D1F7E4E5F0E284EDB1
:102860009BE2DC012D91CD012193BBE2843F9B07CC
:10287000C1F78CE297CF883709F4BFC08B3B09F0D2
:1028800071CF10920A2010920B20809108208D7930
:1028900080930820809100208D7C8093002080917F
:1028A000002085FD04C08091082085FFF8CFF894B2
:1028B0008AE00E942B1B8091C1048E7F8093C1040B
:1028C00084E60E942B1B8FEF80937800E0E0F0E419
:1028D000099548CFC0918E2080918C20C1110CC0E9
:1028E00090B19B3008F05D98589A14C00E94A112D4
:1028F000C82F0E94A112F2CFC630B0F3C332A1F3A9
:10290000C63291F394EF9C0F923070F398EE9C0FC7
:10291000953050F3CE30A0F41092D02B1092D12BE2
:102920001092D22B1092D32B5A9AEC2FF0E0CC308D
:1029300028F0CC50EC2FF0E0EC52F44D808312CF15
:10294000C432B8F3599AF5CF80918E2090918F20A0
:102950008093F02B9093F12B80918C2090918D207F
:102960008093F22B9093F32B599AFCCEE8980E9417
:10297000921AF8CEE89840E051E067E272E080ED0C
:1029800094E20E942245EECE589A5C9AEBCE589A79
:102990005C98E8CE589A0E94111EE4CE80918C205B
:1029A00090918D208093DE2B9093DF2B0E94D51F7A
:1029B000589AD8CE0E94BE1A589A5A9AD5CFA8E4EF
:1029C000B0E28CE490E2E0EDFBE221912D938A17D6
:1029D0009B07D9F7E6CE679AC5CEC0E08C2F90E072
:1029E000895D9D4F0E940D450E94B21281E08C0FBF
:1029F000CF3F09F4B7CEC82FF1CF87E40E94B212BF
:102A0000C0EDD4E21C2F0E94A11289931C13FBCFAE
:102A1000599A84E50E94B212A5CE6AE1CE010E94C5
:102A20008712EC018AE10E94B2121F5F7CCE1F92D6
:102A30000F920FB60F921124EF92FF921F932F93D4
:102A40003F934F935F936F937F938F939F93AF9336
:102A5000BF93CF93DF93EF93FF93109208041092EC
:102A600009048091A00A0E94F512182F88E4E82E2C
:102A700080E2F82EE7018C2F8E198117B0F0FF91BC
:102A8000EF91DF91CF91BF91AF919F918F917F9106
:102A90006F915F914F913F912F911F91FF90EF9018
:102AA0000F900FBE0F901F90189589910E94B2123F
:102AB000E2CFEDECF0E2119284E2ED3CF807D9F7B9
:102AC0001092CE241092CD240895F8943C9B0DC012
:102AD00088EC0E94831981EA0E9483193B9B0AC0FB
:102AE00087EA0E9483197894089580EC0E948319E4
:102AF00080EAF2CF86EAF5CF0F931F93CF93DF934F
:102B0000182F062FEA01BE01FE0184916F5F7F4FEF
:102B10002296FB0164918F3F29F0600F810F0E9484
:102B2000EE0BF1CFDF91CF911F910F910895CF92CE
:102B3000DF92EF92FF920F931F93CF93DF93C82FF3
:102B4000D62F042F081B122F161BDD24D39417FF3A
:102B500004C0162F121BDD24DA94CC24C39407FF83
:102B600004C00C2F041BCC24CA946D2F8C2F0E9400
:102B7000EE0BF02EF694E12C0117E0F4F12EF69412
:102B8000E12CF00EF11610F0F11ACC0DDD0D6D2FC9
:102B90008C2F0E94EE0BE3941E11F3CF0DC0F10EAB
:102BA000F01610F0F01ADD0DCC0D6D2F8C2F0E9459
:102BB000EE0BE394E012F3CFDF91CF911F910F91D1
:102BC000FF90EF90DF90CF900895EF92FF920F93D8
:102BD0001F93CF93C82F8A30A9F1082E000C990BB0
:102BE0004497FC01EE0FFF1FE80FF91FE356FB4F60
:102BF0008F010D5F1F4F7F018FEFE81AF80AE491F4
:102C0000619B02C0E068E0958E2F0E94FE0BF701E9
:102C1000E016F10681F780E3CC3141F1CD3179F452
:102C200088E30E94FE0B8091CE248F5F8093CE2498
:102C30008091CE2487FD0AC0CA3079F407C088E0AD
:102C4000CA31A1F08091CE2487FF0DC01092CE240E
:102C50008091CD248F5F8093CD24CF911F910F91D0
:102C6000FF90EF900895619B04C08FE70E94FE0BD8
:102C7000DFCF80E0FBCFEF92FF920F931F93CF93B4
:102C8000DF938E3251F480E60E94FE0B80E60E94B4
:102C9000FE0B8091CE248E5F12C08D3259F483E0FA
:102CA0000E94FE0B83E00E94FE0B83E00E94FE0B5D
:102CB00083E0EDCF803261F48091CE248A5F8093EF
:102CC000CE24DF91CF911F910F91FF90EF90089547
:102CD00094E18902E0011124CB52DC4F8091CD2494
:102CE00081508093CD248E01065F1F4FFE017F012E
:102CF0008FEFE81AF80A84910E94FE0BF701E016A4
:102D0000F106A9F78091CD248F5F8093CD24809127
:102D1000CE248A508093CE24649678019FEFE91ADE
:102D2000F90AF80184910E94FE0B8701CE15DF0598
:102D3000A1F7AFCFCF93DF93EC01FE0184912196F1
:102D4000811103C0DF91CF9108950E94E515F5CF61
:102D5000CF93DF93C82F843658F0DCE9D80F81E396
:102D6000D43618F0D8E3DC0F82E30E94E515CD2FAE
:102D700080E3CA3040F40E94E51580E38C0FDF91B8
:102D8000CF910C94E5158F5FCA50F3CF4F925F92AD
:102D90006F927F92AF92BF92CF92DF92EF92FF92AB
:102DA0000F931F93CF93DF93CDB7DEB72897CDBF97
:102DB000DEBF69017A019E012F5F3F4F590198E004
:102DC000F90111929A95E9F78093CE246093CD246E
:102DD00080E2F7FE09C0F094E094D094C094C11C46
:102DE000D11CE11CF11C8DE2629B5CC00E943B1671
:102DF00061998DC0F0E6CF16F3E4DF06F9E9EF063E
:102E0000FBE3FF060CF085C0C11421EED20625EFCE
:102E1000E20625E0F2060CF448C0C701B60120EA3C
:102E200036E841E050E00E94FD4269017A0100E08D
:102E300084EF90E1D501AE0147505109FC01459066
:102E4000559065907490C414D504E604F70408F016
:102E500068C0049711974A175B0781F761996DC0A5
:102E600013E0F501E10FF11D8081629B68C00E94B3
:102E70003B16011303C08EE20E943B16115088F7E7
:102E80002896CDBFDEBFDF91CF911F910F91FF90AC
:102E9000EF90DF90CF90BF90AF907F906F905F905A
:102EA0004F9008950E94E515A3CF30E8C31636E988
:102EB000D30638E9E306F10464F0C701B60120E166
:102EC00037E240E050E00E94FD4269017A0101E0F2
:102ED000AFCF80E4C81682E4D8068FE0E806F1049C
:102EE00064F0C701B60128EE33E040E050E00E94F4
:102EF000FD4269017A0102E09BCFC701B60124E6D9
:102F000030E040E050E00E94FD4269017A0103E0B8
:102F10008FCF00E08FE0C82E87E2D82EE12CF12C75
:102F200087CF17962C9117972F5F17962C9317978B
:102F3000C418D508E608F70886CF17E092CF805D61
:102F40000E94E51501139ACF8EE20E94E51596CFF7
:102F5000E62FF0E0EE0FFF1FE05EFF4D2081318194
:102F6000DC010E94314328E030E040E050E00E9464
:102F7000FD426091CD248091CE240C94C61680939E
:102F8000CE246093CD24CA010C949A16CF92DF927E
:102F9000EF92FF920F931F934091F02B5091F12BE2
:102FA0006091F22B7091F32B20EF30E186E0F90174
:102FB000C590D590E590F4904C155D056E057F05A4
:102FC00028F48150245031098F3F89F794E0899F7C
:102FD000F0011124E053FF4E059115912591349194
:102FE000619B13C0401B510B620B730B4093F02B82
:102FF0005093F12B6093F22B7093F32B1F910F9151
:10300000FF90EF90DF90CF900895629B05C0400F36
:10301000511F621F731FEACF823009F487E094E0EA
:10302000899FF0011124EC52FF4E45915591659115
:103030007491DCCFEF92FF920F931F93CF93DF93A6
:103040008091EC2B181614F41092EC2B8091EE2B3F
:10305000811103C081E08093EE2B8091F02B909141
:10306000F12BA091F22BB091F32B84369105A105A1
:10307000B10508F0BBC084E690E0A0E0B0E080932A
:10308000F02B9093F12BA093F22BB093F32B0091A4
:10309000F02B1091F12B2091F22B3091F32B96E035
:1030A00080E440E05AE668E170E0401751076207AB
:1030B000730738F0769567955795479586959150A3
:1030C000A1F78093CF248091ED2B823009F4FDC0CD
:1030D00008F097C0882309F4CDC0813009F4E3C01B
:1030E0004091EE2B50E020E031E0241B350B220F05
:1030F000331F440F551FB0E0A0E000ED15E260E083
:103100008B2F90E080539A4DFC01F395E801799163
:103110007083BF3FA1F07C0171E0E70EF71EF8015C
:1031200070818181082E000C990B870F911D77FD0E
:103130009A9597FD019695958795F7018083A20F43
:10314000B31F6F3709F49A0181E0860F8E016F3F3C
:1031500009F0D5C0C091CF24AC2FB0E020E13EE50E
:103160004FE550E00E9438432091F02B3091F12B35
:103170004091F22B5091F32B0E94DB4221503109F8
:1031800086E08093A20081E0C23008F482E0809360
:1031900040092093760930937709C69509F4C1E078
:1031A00010E0D0E02091EC2BE12FF0E0E053F94D5E
:1031B0003081A303812D11246091EF2B0E940E0C0E
:1031C000ED2FF0E0E053FB4D808381E08D0F1C0F6D
:1031D000DF3F09F096C0599887E08093A200DF9105
:1031E000CF911F910F91FF90EF90089581329C4BEA
:1031F000AE4BB10508F44BCF80E29CEBAEEBB0E0F8
:103200003ECF843069F038F1853009F069CF40E075
:1032100051E067E272E080ED95E20E94014560CFE7
:10322000EAEFFDE0A0EDB5E280E02A2F9B2F8F5F53
:10323000813809F05FC080E8482F4058550BFA01EB
:10324000E650F24FE491A22FB92FED938F5F2A2F12
:103250009B2F91F745CFE0EDF5E290E09F5F91382D
:1032600009F042C080E8982F990F9F5791938F5F84
:10327000D1F736CF209160093091610980ED95E258
:10328000E5E5F2E6482F2E9FB0012F9F700D3E9F7F
:10329000700D11249B012F5F3F4FDC013D93CD0149
:1032A0004A13F1CF1DCFC0EDD5E20C2F10E41C1B4B
:1032B0007E01EFEFEE1AFE0A8C2F810F0E94660A44
:1032C0008883E7010E11F4CF0BCFE0EDF5E29F010B
:1032D0009E2F8E2F821B87FD05C081E881939E1350
:1032E000F8CFFECE8FE7FACF892F8195880F8F57C1
:1032F0008193B4CF949191959D93319696CF682FF9
:10330000FFCED82F4FCF88988B988093A0098091BB
:10331000A10986FFFCCF8091A10980648093A10957
:103320000895899884E690E00E942B1B899A84E096
:1033300090E00E942B1BF8948EEA0E94831985ED81
:103340000E94831980EA0E94831981E20E948319F6
:1033500082E00E94831981E80E94831988ED0E940F
:10336000831985E00E94831981E80E9483198FEFF9
:103370000E94831989ED0E94831982E80E948319B3
:103380008BED0E9483198CE30E94831984EA0E94CA
:10339000831986EA0E94831980E20E94831980E0E3
:1033A0000E948319EA988AEF90E00E942B1B8FEA13
:1033B0000E9483197894EAECF0E280EB808380E14C
:1033C000818382E082830895F8948EEA0E948319B3
:1033D000EA9A84E690E00E942B1B789408958898DE
:1033E0008B98E0E0F1E080A9806480AB80E182AB63
:1033F00083E090E084AB95AB80EA84AF89E085AF51
:103400008CE683AB8AEC90E280AF91AF84E880AB2E
:103410009AE29A95F1F700C08B9A20E034E024AB51
:1034200035AB91E191AB80AB08958F938FB78F93BC
:10343000EF93FF9380E28A95F1F7889AE0E0F1E05C
:10344000838181608383FF91EF918F918FBF8F91F3
:103450001895A89580E0889906C095E59A95F1F7AA
:1034600000008150C1F7EC98E89808951F921FB6AC
:103470001F9211248F93809106088B7F80930608FA
:103480008FB18111609A8F911F901FBE1F90189568
:103490000F93CF93DF930F92CDB7DEB72FB729836A
:1034A000F8941BBEFC0108ED04BF608389818FBFC7
:1034B0000F90DF91CF910F910895AAECB1E092E0C7
:1034C0009C93E82FF0E084911C920895982F80E35C
:1034D000890F8A3310F087E3890F0895CF93C82F9F
:1034E00082958F700E94661A0E94E5158C2F8F704E
:1034F0000E94661ACF910C94E51590E8980F97FFFB
:1035000002C091E8980F892F8595805808958134DD
:1035100028F0803C28F4880F8058089580E00895B2
:103520008FEF0895669929C088B1803258F4809150
:10353000042F80B98091F42B8093D42B8091FE2EA0
:103540008093D52B4CE050E067E273E090E080E0A0
:103550000E94224540E250E067E072E084ED9BE289
:103560000E94224580B18093042F8091D42B8093B8
:10357000F42B8091D52B8093FE2E08954CE050E0E3
:1035800067E970E190E080E00E94544440E250E03E
:1035900067E770E184ED9BE20E945444EC9A0E943C
:1035A000921AEC981FB808951F921FB61F9211240B
:1035B0008F938FB1811101C01EB88F911F901FBED4
:1035C0001F9018951092C1041092C3041092C00469
:1035D000EC980E94921A0E94E4198FB18111FDCFDC
:1035E000A89885E0809348008895109248000E9432
:1035F0009119A89A1FB80C943F111F920F920FB601
:103600000F9211242F933F934F935F936F937F9368
:103610008F939F93AF93BF93EF93FF930E94E21A10
:10362000FF91EF91BF91AF919F918F917F916F919A
:103630005F914F913F912F910F900FBE0F901F9070
:1036400018951F921FB61F921124109248001F90C8
:103650001FBE1F901895A895811101C00895EFE332
:10366000FFE13197F1F700C000008150F5CF1F92C4
:103670000F920FB60F9211242F933F934F935F93A6
:103680006F937F938F939F93AF93BF93CF93DF936A
:10369000EF93FF93EC98E898C9E1D0E081E00E94B5
:1036A0002B1B80910806982F9E719D13CAE0C15074
:1036B000D92FA1F71FB881FF789A282F2071982F52
:1036C000987084703C9B36C0211101C0799A911189
:1036D00001C07A9A811101C07B9A8FB18823A1F130
:1036E000589A7C9A80910408882369F088E1809335
:1036F000210880910C08826080930C088091060854
:103700008460809306081092080410920904FF91C7
:10371000EF91DF91CF91BF91AF919F918F917F9169
:103720006F915F914F913F912F910F900FBE0F902E
:103730001F901895211101C07B9A911101C07A9AAE
:103740008111CBCF799AC9CF6098DDCF0E940C2030
:1037500080E40E942B1B0E94682380E10E942B1BA7
:1037600084E180930102E0E0F1E080898F77808B33
:1037700080A98F7780AB80A18F7780A308959F92D7
:10378000AF92BF92CF92DF92EF92FF920F931F936F
:10379000CF93DF931FB80E94591584EE95E00E94E5
:1037A0009A1641EE55E067E084E70E94BF170E9439
:1037B000EF198FB18823E9F3799B37C00E9459151F
:1037C00010B800E080ED95E2B82E87E0982E80B129
:1037D0008830E0F180E18093010287E08093040269
:1037E00010E0D0E0C0E0F12CE12C03E800932002CF
:1037F0000093280281E00E942B1B8091240290916B
:103800002502E80EF91E80912C0290912D02C80F1E
:10381000D91F115059F7B70180EA93E00E944F4534
:10382000BE018EE993E00E944F451FB861E080E041
:1038300090E0DF91CF911F910F91FF90EF90DF907B
:10384000CF90BF90AF909F900C942C45102FC6E066
:10385000D0E0AA24A394A10EC093D42BC093D52B5F
:103860000E94A61BF12CE12CD12CC12C80ED95E2FD
:10387000FC012191C20ED11C27FDDA949E5FDC0170
:103880008C91E80EF11C87FDFA94CF01BE12F0CFA7
:10389000EC9A80B19E01899D200D311D1124C90132
:1038A0006D2D8C599C4F0E942C4520E22D0D20340B
:1038B00080F54A2D60E28A2D0E94971580B18823F9
:1038C000C9F020B12150330B929EC001939E900D00
:1038D00011248C0F9D1F6F2D8D5C9C4F0E942C45D9
:1038E00020E22F0D2034B8F481E4810F482F60E2EC
:1038F0000E9497150E94EF190E94291A21971A2DEC
:10390000CF3FDC0709F0A5CF095F80B18F5F80B999
:103910005ECFE89AD3CFE89AEDCFD4E0D0935600AB
:103920008CE10E945D1A809363000BE100936500B7
:1039300087EB80936600C1E0C09360008BEC8093BE
:10394000520082EC809355001BE01093500082E0FF
:103950000E942B1B009350006BE280E890E00E94D5
:10396000481A82E00E942B1B64E080E490E00E94F1
:10397000481A8AE18093500081E48093B20082E388
:103980008093B30010BB8FE18CBBDDBB89E084BBAF
:10399000C5BB88E1809311068093120680931306BD
:1039A00080931406D7E0D0931506D0931606D093D3
:1039B000170692E0909309069EE190930A06C09341
:1039C0004A0690E890934B06C09375068093910643
:1039D000C093A60980EC8093A50928E02093A40950
:1039E00020EE2093800120E22093810128ED209396
:1039F00083018093840188EC809385018FE8809314
:103A0000860120ED20938701C093210381E18093FB
:103A1000220383E08093230335E030932003209337
:103A2000420125E22093430120E031E0209344014C
:103A30003093450120ED34E2209348013093490151
:103A400029E320934C0180934D0184EA8093400147
:103A5000909300014CE050E067E273E090E080E07A
:103A60000E94014540E250E067E072E084ED9BE295
:103A70000E940145D093A20078940E943F1180914A
:103A80008006816080938006809184068E7F80937B
:103A900084068BE090E0019709F05CC00E949119C8
:103AA00045E450E06AEF7FE08BEE91E20E945444DF
:103AB0000E94651548EF50E167E082E30E94BF175E
:103AC0000E94EF198FEF93E224EF81509040204045
:103AD000E1F700C0000085E08093430080E090E0C3
:103AE0000E940D45811101C0629A83E090E00E941E
:103AF0000D45C82F8091080681FF629A1FB8D1E05A
:103B000018E207E084E1F82E90E1E92E21E8D22EB8
:103B10003AE3C32E62993BC01FB88091010480FD37
:103B2000FCCF3CE3C39FC001112480930A0490930F
:103B30000B048CE390E080930C0490930D04CC2351
:103B400031F085E08093020487E0809300040E94B6
:103B5000E523FDCF209184062E7F209384062FEF4E
:103B600033EC49E0215030404040E1F700C0000014
:103B7000209184062160209384062FEF33EC49E0E6
:103B8000215030404040E1F700C0000084CF0E9447
:103B90005915D09300021093390200930402F09259
:103BA0000102E0920202D092380281E00E942B1BB7
:103BB00020913C0230E0A0EBBCE00E9422439B013C
:103BC000AC0161E080E40E94C6168AB30E94B21282
:103BD00047EF55E066E080E00E94BF17C092CE2418
:103BE000CC23D9F08C2F0E94A8167C9B11C07C9806
:103BF0007B990E94BF1B7A99C05F79990E94BE1A77
:103C0000789B06C06C2F83E090E00E942C45629860
:103C10000E94EF190E94291A7DCF8DE20E94E515BE
:103C2000E4CF5C98289829982A9887E080934720C9
:103C30001EB81FB808958091D42B8823B1F09091BD
:103C4000F82B913290F081508093D42B8091E02B0F
:103C5000811106C08091E12B0E947D1A8093E12B97
:103C60008091F82B86958093F82B8091D52B882313
:103C7000B1F09091022F913290F081508093D52B2A
:103C80008091E02B813031F48091E12B0E947D1AEC
:103C90008093E12B8091022F86958093022F0895C7
:103CA000109247208091042F80B9E4EDFBE28091CF
:103CB000F42B80838091FE2E8183089580B18093C0
:103CC000042FE4EDFBE280818093F42B81818093CB
:103CD000FE2E1082118287E0809347200895CF93B3
:103CE000DF9340995EC041995FC0429960C0629A7B
:103CF000449B67C080E0ACEFBBE2349162993FE740
:103D00008F3708F05AC03196BD016F5F7F4FED01CC
:103D1000D395288120584C914058C303A001112409
:103D200094E0899FD0011124A053BA4D4D935C9328
:103D30001197A3039001112412962D933C9313978E
:103D400091E0980F8F3FB1F5629880ED95E20E9467
:103D5000770A60ED79E280ED95E20E94490B90913F
:103D6000D0298091D12922E0891708F021E030E0A4
:103D700093E080E0F901E053F64D4081941710F490
:103D8000942F822F2F5F3F4F27FFF4CFE82FF0E0D3
:103D9000E053F64D9081983008F480E0DF91CF91A8
:103DA0000895EAE7FFE0A4CFEAEFFEE0A1CFEAE75B
:103DB000FEE09ECF892FDB01A0CF87FFA5CF3197F3
:103DC000A3CF20E0449162994FE72F37F8F4319662
:103DD000EC0189918058382FB403812D112494E08F
:103DE000299FD0011124A053BA4D12961C9212970C
:103DF00013968C9313971C9211968C9381E0820FEB
:103E00002F3F09F4A1CF282FCE01DCCF27FFE0CF31
:103E10003197DECF80B12FE78B3008F02FEF479B33
:103E200009C08091F92B8093D72B8091032F809329
:103E3000D82B08951092D72B2093D82BE091D62B16
:103E4000089B02C0109B08C08091022F089B19C0DC
:103E50009091F82B8917A8F49091F72B8091F82B6B
:103E6000F0E0E450F44D883098F480B18B3008F3E2
:103E70008091D72B86958093D72B8091D82B8695D0
:103E8000D6CF9091012F883080F3F0E0E450F34DCD
:103E90008695890F9081981760F190E041E0490F75
:103EA0003191831770F19093D72B9F5F3191381721
:103EB00060F19093D82B9F5F31918317B8F4291349
:103EC000FACFD3CF942F241781F241E0490F3191DB
:103ED0003817C0F39093D72B9F5F3191831758F019
:103EE0009093D82B9F5F3191381740F09093D82B47
:103EF000BCCF90E0EACF2913EFCFB7CF2913F2CF91
:103F0000B4CF942F4213CACFB0CF9213CECFADCF40
:103F1000CF93DF93E7E5F0E1A4EDBBE284919D91BF
:103F2000981718F0ED012197888331968BE2A43F12
:103F3000B807A1F78091E52B87FD03C08EEF809332
:103F4000E52B8091E62B87FD03C08EEF8093E62B57
:103F50008091EA2B9091E92B891710F48093E92B3B
:103F60008091EB2B811103C081E08093EB2B80913A
:103F7000E12B833018F483E08093E12B8091E32BD5
:103F80009091E22B981710F48093E22B8091E42B10
:103F9000833018F483E08093E42B80B1863110F0F5
:103FA00085E180B9DF91CF9108958091DE2B9091CA
:103FB000DF2B8F3F9105A0F490B1911102C08830A2
:103FC00028F190B1913011F4853010F190B1923018
:103FD00011F48530E8F090B1963078F48430D0F068
:103FE0008091DE2B9091DF2B97FF06C08FEF9FE72C
:103FF0008093DE2B9093DF2B08958111F1CF81E028
:1040000090E08093DE2B9093DF2BEACF88E0F8CF0F
:1040100085E0F6CF84E0F4CF0F931F93CF93DF9327
:104020000E94881F0E94D51F98E19093700084E041
:104030008093710023E0209372002CE7209373009B
:104040002CE620937400209375008093A2001092B8
:10405000000A1092010A1092060A1092400810926B
:1040600041088FE08093000882E0809304089093D9
:1040700027089091E42B909326089EE090930009E6
:104080008093040987E28093260984B120E0982F69
:104090009170290F8695D9F788E090E0821B9109ED
:1040A000880F880F880F9091E72B891710F41092D2
:1040B000E72B80B1811109C0469904C0479B05C018
:1040C000449B03C080B18F5F80B984E1809301027B
:1040D00085E48093030283E08093040290B19B30D7
:1040E00008F484C0109227098093000A80B18B30B5
:1040F00009F079C087E893E18093260A9093270A14
:10410000E0B1F0E0EE0FFF1FEC53F24F8591949178
:104110008093FA2B9093FB2B0E94651581E080938E
:10412000000280E2809302020E945D1A80930C02DA
:1041300081E20E945D1A80930D028AE2809321023F
:104140002091D42B30E0C901880F991F880F991F47
:104150008360809320028BE2809329028091D52B8B
:10416000082F10E0C801880F991F880F991F8360DE
:104170008093280280E180933102C0B180B1883001
:1041800008F0C7E087E0C89FE0011124C9018C0F47
:104190009D1F8C599C4F0E940D4581958093F52B56
:1041A00080B1882351F0CE01800F911F845D9C4F18
:1041B0000E940D4581958093FF2E87E08093A20099
:1041C0001C9B3AC081E4199B03C01A9937C08061D7
:1041D0009FEF9093B000809350065A98DF91CF9153
:1041E0001F910F91089589E698E186CF1DB887E069
:1041F0008093270980B1863068F0E0B1F0E0EE0FDF
:10420000FF1FEC51F24F859194918093260A909371
:10421000270A82CF82E08093040280E48093030225
:1042200080B1823018F080B18093040280B1811196
:1042300073CF1092030270CF81E0C5CF8861C8CFE1
:104240001F920F920FB60F921124CF92DF92EF922E
:10425000FF920F931F932F933F934F935F936F930F
:104260007F938F939F93AF93BF93CF93DF93EF93FE
:10427000FF93F090CE240091CD2480912402609190
:10428000F52B0E940E0CE82E80912C026091FF2EDF
:104290000E940E0CC82F0C99E0941499C09560E808
:1042A0006C1B10E81E0D9603112D112410580E9B47
:1042B00047C10F9B47C18E2D0E940D0CD82F169B16
:1042C00008C0179B41C160E86E198C2F0E940D0C2D
:1042D000C82F80913F2090914020A0914120B09123
:1042E00042208D0F911DA11DB11D80933F20909301
:1042F0004020A0934120B093422080913B20909198
:104300003C20A0913D20B0913E208C0F911DA11D1D
:10431000B11D80933B2090933C20A0933D20B0930F
:104320003E208091392090913A2001968093392047
:1043300090933A20659AC090FA2BD090FB2B8091F5
:10434000392090913A208C159D0508F46DC010928B
:10435000392010923A200D9B0EC0960150E040E0AB
:1043600060913F20709140208091412090914220A7
:104370000E94DB42D22F159B0EC0960150E040E018
:1043800060913B2070913C2080913D2090913E2097
:104390000E94DB42C22F10923F20109240201092C8
:1043A00041201092422010923B2010923C2010920B
:1043B0003D2010923E203A9B10C0EDB1F0E0E45059
:1043C000F44D80818D0F8795EDB1F0E0E450F34D11
:1043D00090819C0F9795C92FD82FEDB1F0E0E45054
:1043E000F44DD083EDB1F0E0E450F34DC083EDB176
:1043F0008AB3F0E0E450F24D8083679B15C08DB125
:10440000811109C08DE00E94B2128AE00E94B212AE
:1044100083E50E94B2128D2F0E94B2128C2F0E944F
:10442000B2128AB30E94B212459B1EC130991CC1C0
:104430008091392090913A20892B09F487C00D9BF7
:1044400085C0159BBBC0EAB2C091E72B189B21C069
:10445000D7E010E884B18123C9F08DB1843061F4D4
:104460001092CE248C2F8695869586958093CD24A8
:1044700080E38D0F0E94E5158E2D812309F4E8C09D
:104480008DB16C2F86950E94EE0BC85F1695D150AA
:1044900008F71E9B12C08DB18F7079F4C93368F490
:1044A0008DB186958F5F8093CE24C695C695C695AF
:1044B000C093CD248E2D0E946E1A80913920909148
:1044C0003A20892B01F58DB18F5F8DB98DB18111A6
:1044D0000CC0649A679B09C08AE00E94B2128DE00A
:1044E0000E94B21287E30E94B2123099DAC08DB1F5
:1044F0008111C4C01D9B03C045990E944F3D10927D
:10450000060A5C9BBBC0F092CE240093CD24FF91A1
:10451000EF91DF91CF91BF91AF919F918F917F915B
:104520006F915F914F913F912F911F910F91FF904C
:10453000EF90DF90CF900F900FBE0F901F901895C7
:10454000DE2DBDCED12FBBCEC12FC3CE6091E52BCA
:104550008D2F0E940D0CD82FD6951D2FD03408F02A
:104560001FE3EDB1F0E0E550F44D6091E52B808163
:104570000E940D0C3E9B55C09DB1992309F451C07A
:104580008695282F803408F02FE3121304C0DD2312
:1045900071F08F3360F4089B0AC04DB18DB141506A
:1045A000550B55954795612F86950E9497158091DB
:1045B000392090913A20892B09F043CF6091E62B66
:1045C0008C2F0E940D0CC82FC695DC2FC03408F02C
:1045D000DFE3EDB1F0E0E550F34D6091E62B808133
:1045E0000E940D0C3E9B28C09DB1992329F1869510
:1045F000282F803408F02FE32D1306C0CC2309F4B4
:1046000022CF8F3308F01FCF109B1DCF4DB18DB13E
:104610004150550B559547956D2F86950E949715DE
:1046200012CF089BC4CFD150DE3308F68DB1612F75
:1046300086950E94EE0BBBCF109B05CFC150CE33A9
:1046400008F001CF8DB16D2F86950E94EE0BFBCE49
:104650008DB166E06C0F86950E94EE0B1B9B15CF0B
:104660008DB165E06C0F0ECF479B27CF3F9B25CFC9
:104670008DB16FE386950E94EE0B1FCF459B43CF14
:104680003D9941CF68993FCFEDB1E695F0E0E65313
:10469000FF4D88E013828150E058FF4F8111FACF1F
:1046A00032CF5C9B30CF1092060A2DCF8F938FB7FD
:1046B0008F93EF93FF93E0E0F8E086818E7F86830F
:1046C000589A5D9AFF91EF918F918FBF8F911895B6
:1046D000809110018064809310018091300180648A
:1046E000809330018091200180648093200145E017
:1046F0004093120150E15093130120E032E02093E7
:1047000014013093150180ED95E280931C01909384
:104710001D0184E28093180192E090931901809327
:1047200010014093320150933301209334013093B0
:10473000350160ED79E260933C0170933D015AE1EF
:104740005093380110923901809330014093220137
:1047500041E140932301209324013093250120ED72
:1047600037E220932C0130932D012CE22093280175
:10477000909329018093200180911001806880939B
:104780001001809130018068809330018091200178
:1047900080688093200180B1863050F48CE1809352
:1047A000010290E080E02091110124FF04C00895EF
:1047B0009093000AF6CF20E22A95F1F7589B02C0A9
:1047C0005D980895019779F70895CF93DF93CDB75A
:1047D000DEB72997CDBFDEBF80B18093042F8091D3
:1047E000D42B8093F42B8091D52B8093FE2E1EB872
:1047F000589A5A9A599A7C9A639A5A990E940C200C
:104800005B9B08C01FB85C980E94921A0E94C13E30
:104810000E940C20609B12C07B9B03C05C990E948D
:10482000111E8EB18C3220F07A9901C079997C9A50
:10483000789B04C00E94E21A1EB8589A5C991CC06A
:104840005D991AC02091DD2B2C834C814111D2C27D
:1048500080B18B3010F40E946823289902C02A9BF3
:1048600009C0309B03C080B18B3020F488B1803206
:1048700008F0C9C2589B5D9A85E08093020480913C
:1048800006088E7F809306085D9B3CC188B180320C
:1048900020F45E9B02C05F9935C180B18B3008F077
:1048A0007FC38FE99FE00197F1F700C000001092ED
:1048B000000A84E1809301028091FC2E8F5F809337
:1048C000FC2EAFE7B2E01197F1F700C000005D9851
:1048D00010924008809110018F7780931001809191
:1048E00030018F7780933001809120018F77809302
:1048F0002001809114019091150120B1812CE2E0FA
:104900009E2E223060F4812C73E0972E881A990A2B
:104910008114B2E09B0628F0812C99249394881A84
:10492000990AF401E053FA4D7F0194012053384D68
:104930006901A4014053564D5A016CEF7BE26F832D
:104940007887662ED5018C91EF81F885FE5F808394
:10495000F7012081822FD6019C91192FBFEF8B1A6E
:104960009B0AFFEFAF1ABF0A3FEFE31AF30A4FEFBC
:10497000C41AD40A8114E2E09E0670F0912C812CB6
:1049800030EDA32E39E2B32E40EDC42E47E2D42EF3
:1049900050EDE52E55E2F52E30B1323060F10D9B31
:1049A00005C0D7018C9185952595820F159B05C073
:1049B000F601108115959595190FFFEF8F1A9F0A33
:1049C0003FEFE31AF30A4FEFC41AD40A5FEFA51AB8
:1049D000B50A811422E0920671F4912C812C00ED2D
:1049E000A02E09E2B02E90EDC92E97E2D92E20ED2F
:1049F000E22E25E2F22E6091F52B0E940E0C582E2D
:104A00000C9950946091FF2E812F0E940E0C082F5C
:104A10001499009510E8150D60E8601B9603812D30
:104A20001124B0E84B2E480E0E9BAFC20F9BAFC2B5
:104A3000852D0E940D0C782E169B08C0179BA9C2CD
:104A400060E86519802F0E940D0C082F8F819885D2
:104A50000196EF81F885F3953A9B9DC2AF81B885A9
:104A60002C91270D27952C932081200F27952083AB
:104A70008F839887681266CF679B22C08DE00E9463
:104A8000B2128AE00E94B21286E40E94B212ECEFE7
:104A9000FBE2EF83F887AF81B8858D91AF83B8874C
:104AA0000E94B212EF81F885EC5FFE42A1F78AE026
:104AB0000E94B2128DE00E94B21287E30E94B212ED
:104AC0008091182085FF0FC010921E2010921F2089
:104AD00042E053E840931A2050931B208091182005
:104AE0008D7980931820F894299B09C05C9A80B135
:104AF0008B3028F48EB1853011F083E38EB97C9B26
:104B000058987894809110018F778093100180914C
:104B100030018F7780933001809120018F778093CF
:104B200020015D99EBC03D990CC0479908C046999A
:104B300006C0459B06C080B18B3008F030990E94BA
:104B40005915F89480B18B3020F0309B02C0649BE3
:104B5000A1C064984C9B26C0E0B154E0E59FF001F1
:104B60001124EE57F24F2591359145915491E0B1C2
:104B7000ACE05695479537952795AA95D1F7AA8128
:104B8000BB810E944343E73008F01DC2969587958C
:104B9000779567956093F02B7093F12B8093F22BB0
:104BA0009093F32B4D9B0AC08A819B81E5E09595FC
:104BB0008795EA95E1F781958093EC2B4E9B0AC08F
:104BC0008A819B8174E0959587957A95E1F7805865
:104BD0008093EF2B4F9B09C08A819B8164E0959560
:104BE00087956A95E1F78093EE2B6981611103C087
:104BF0007091EB2B79834A99F5C199818091E92BCA
:104C0000A0E18A9FA00111242091EA2BB0E12B9F03
:104C100090011124EA81FB81E90FF11D97FDFA95BE
:104C2000EA83FB832E173F070CF0DFC14B99A901E4
:104C3000629A4A835B83499B07C0489BE2C17981A2
:104C40007F3710F47F5F7983629B09C0A091EB2BC3
:104C5000A9834B9B04C029B194E0922799B962982B
:104C600099B19031B8F0599A3F9B14C06FE3869583
:104C70000E94EE0B8091EA2B6FE386950E94EE0B6B
:104C80006FE38A819B8155E0959587955A95E1F769
:104C90000E94EE0B78949091FC2B8091FC2C9C014F
:104CA00040E0E42FF0E0E450F44D5081F395608152
:104CB000951708F4952F531708F4352F861708F425
:104CC000862F621708F4262F51E0540F4F3F09F04A
:104CD0009FC1492F431B4093F82B482F421B409301
:104CE000022F9093F62B3093F72B8093002F209375
:104CF000012F319B03C045990E940A1F459B57C253
:104D0000369B63C080B10091D62B8B3008F000E059
:104D100086E090E00E940D45B82E85E090E00E946C
:104D20000D45A82EDE80CD801C82E02EF12CC7011F
:104D3000895F9E4F0E940D45982EC701895F9F4F46
:104D40000E940D458E836B2D892D0E940D0C86953A
:104D50008D83803410F0BFE3BD836A2D8E810E9465
:104D60000D0C86958E83803410F0EFE3EE83FC808B
:104D7000FA9480B18B3008F44FC1FC81F695FF8323
:104D8000F6943E9B4CC13C813323B9F0089B06C08E
:104D90002C2D4F2D6D818F810E949715109B06C081
:104DA0002D2D4F2D6E818F810E94971580B18B30F4
:104DB00018F44C814F3748F40F5F8C818F5FCD80A2
:104DC000DE805C815F3F09F025C180B18B3010F03F
:104DD000309BEDC180B18B3008F42EC1309B2CC1CB
:104DE0008DB1C82E6894C0F8932CA12E1F82D12CAF
:104DF0001C8227C158992CCD81E00E942B1B3C813D
:104E000031503C8322CD109260081092610881E0FD
:104E100080934C088091DE2B9091DF2B20B12230C3
:104E200010F0880F991F20B1211136C00897809388
:104E3000660890936708809126088093200881E097
:104E40008093020480910C08816080930C082A9B57
:104E500005C08091060881608093060869E280E8B9
:104E600090E00E94481A8091E02B81114DC0609122
:104E7000F52B61958091E12B0E940D0C2E9B1EC09D
:104E80006091E32B8091E22B0E94800D6BE280E821
:104E900090E00E94481AF0CC20B1213011F405971F
:104EA000C6CF20B12230D9F320B1263010F40497B8
:104EB000BECF009709F4BBCF0197B9CF2D9B14C08B
:104EC0009091E12B80E8890F87FF02C080E8891B61
:104ED000811101C081E02B9B04C081950E94260DA9
:104EE000D5CF0E943C0DD2CF2F9B05C02B9B09C074
:104EF0000E94D30CCBCF2091240290E8980F291761
:104F0000BCF30E94E30CC2CF813099F56091FF2E73
:104F100061958091E12B0E940D0C2E9B07C0609142
:104F2000E32B8091E22B0E948B0DB0CF2D9B11C003
:104F30008091E12B805887FD8095811101C081E02F
:104F40002B9B04C080950E94540DA0CF0E946A0D37
:104F50009DCF2F9B05C02B9B09C00E94060D96CFAD
:104F600020912C0290E8980F2917BCF30E94160D8F
:104F70008DCF8B3008F08ACF82502B9B03C00E94CC
:104F8000740C84CF0E94150C81CF752C55CD742CD8
:104F900053CD042D5BCDAF81B8857C92008368CD65
:104FA000309B07C05D985C999ECD82E08093060A95
:104FB0009ACD649BFACF64985D988091FC2E8F5FA8
:104FC0008093FC2E90CD20ED37E040E050E00E9431
:104FD000DB422093F02B3093F12B4093F22B509334
:104FE000F32BE0CD9981919509CE6A817B8164177D
:104FF00075070CF020CE4B999A01629A2A833B8365
:105000001ACE9981923008F41FCE915099831CCE0C
:10501000452F47CE8C8389CE2C812F83B2CE089B1F
:1050200004C06D818F810E94EE0B109BBFCE6E81FC
:105030008F810E94EE0BBACEC090D62BD5CE932C8A
:10504000A12EEC2CED0C80B18B3028F0309B03C0EE
:105050006D2D66956C83F12CC7018450944D7C01B5
:10506000FC01FE5F80801091E72B189B40C040E858
:10507000B42E07E084B18B21B9F19C81911123C03A
:10508000712E7694769476941092CE247092CD24DC
:1050900080E3800F0E94E5158091E02B8250990BF0
:1050A0000817190681F4ADE7A21568F0289902C027
:1050B0002A9B09C02092CE247092CD242B9B96C2AD
:1050C00089E10E94E515882D8B21612F49F466E066
:1050D000610F8C810E94EE0B1B9B05C065E0610F88
:1050E0008C810E94EE0B185FB694015018F61E9B3F
:1050F00010C08C818F7069F4193358F4BC81B0935F
:10510000CE241695169516951093CD24882D0E94C1
:105110006E1A6091E52BF70180810E940D0C182F0B
:10512000F701F3956091E62B80810E940D0C912F81
:105130009695082F0695192F903408F01FE3302E0E
:10514000003410F03FE3332E3E9B52C2FC81FF231C
:1051500029F11A1104C0992351F01F3340F4089B20
:1051600006C02A2D4F81612F8C810E94971539101E
:1051700007C0332009F454C22FE3321609F453C296
:10518000109B54C280B1882309F453C2292D4F814A
:10519000632D8C810E9497153C813F83EC81EF5FEA
:1051A000EC83D394E7FF4BCF1D990E944F3D469B64
:1051B00052C03F9B06C04DE95CE060E080E00E9489
:1051C000BF178CEF9BE2082F20B12B3048F03099AD
:1051D00007C03DB1282F4CEF5BE2241B3217A9F02A
:1051E000DC011D91AF83B88710959395FC01608118
:1051F0008091D62B681B67FD05C06695812F86952B
:105200000E94EE0BFF810F1320C2369B24C084E066
:1052100090E00E940D45E82E00E0202F30E02F8323
:105220003887C901895F9F4F0E940D45F82EFE18EF
:10523000F7FC0CC08F819885895F9E4F0E940D45B9
:105240006F2D6695809586950E94EE0B81E0800F0C
:105250000F3F09F0FDC1479B47C05D9945C0089BC2
:1052600008C0109B06C080B123E0F22E1BE1811123
:1052700003C092E0F92E17E3449BF0C187B183701D
:1052800079F060E18091D62B0E94EE0B60E2809174
:10529000D62B0E94EE0B60E38091D62B0E94EE0B82
:1052A00090E080E00E946F1E1C828091D62BEC81E2
:1052B000E81BF0E0E053F64D808197B18695869526
:1052C000883308F087E367E3681B96FFC3C127E3D1
:1052D0004C81842F0E9497153C813F5F3C8330387E
:1052E00021F731990E940A1F88B1803208F01BC152
:1052F0005D9B04C05E9B17C15F9B15C10091472059
:10530000011111C184E0809347200E9459155E9BD2
:1053100002C05F990CC04CEE59E060E08CE00E9446
:10532000BF174BEF59E060E08CE40E94BF175E9B13
:1053300002C05F9B04C05E99F5C15F9BF3C147EB60
:1053400050E160E081E30E94BF1747EB50E160E06D
:1053500081E70E94BF17ECEFFBE2EF83F887EF8055
:10536000F884D7016D917D01669566956695645EBA
:10537000802F0E94EE0BEF81F885F3956081669592
:1053800066956695645E80E4800F0E94EE0B0F5F69
:10539000EF82F886003419F7629A1092CE2482E0E8
:1053A0008093CD245E9B06C25F9904C28BB1282FE7
:1053B000207184FDA3C0509101025F8360910402BB
:1053C000698700912002709128027C8380E180939C
:1053D000010287E080930402812C912C5401412C1E
:1053E000512C320133E830932002309328028FE7AA
:1053F0009CE00197F1F700C0000080912402909199
:105400002502092E000CAA0BBB0B481A590A6A0A7E
:105410007B0A80912C0290912D02092E000CAA0B80
:10542000BB0B881A990AAA0ABB0A589967C021506F
:10543000D1F680EA93E00E941D456C01990FEE08B9
:10544000FF08C40CD51CE61CF71C8DE993E00E94F4
:105450000D45A82F880FBB0BB85FA70196010E94CE
:1054600043432B013C018EE993E00E941D456C01F2
:10547000990FEE08FF08C80CD91CEA1CFB1C8CE92C
:1054800093E00E940D45A82F880FBB0BB85FA701C2
:1054900096010E9443436B017C01C301B20120E0ED
:1054A00038E040E050E00E94FD42A5E05595479568
:1054B00037952795AA95D1F72093D02B3093D12BF0
:1054C000C701B60120E038E040E050E00E94FD4214
:1054D000B5E05595479537952795BA95D1F720931F
:1054E000D22B3093D32B9C819093280200932002DF
:1054F000A985A0930402BF81B093010260E080916E
:10550000D02B9091D12B0E94A81780E48093CE24B9
:1055100082E08093CD2460E08091D22B9091D32BB8
:105520000E94A8176298659B1BC0659880911820FF
:1055300085FF16C010920804109209048DB1809363
:10554000FD2E10921E2010921F2042E053E840933F
:105550001A2050931B20809118208D798093182059
:1055600080914720882309F4EAC2E090D42BD090A0
:10557000D52BC0B058B15C8343980E9816988CEF29
:105580009BE20E946F1E8093F92B8CEF9CE20E949D
:105590006F1E8093032F6C8168B988B1803208F048
:1055A0000AC25F9902C05E9B06C203E06AE0B62EA3
:1055B000FF24F39470E4A72E8091D42B081710F4E5
:1055C0000093D42B8091D52B081710F40093D52B82
:1055D00080B18B3008F0B0B8E0914720E83008F097
:1055E000A1C2F0E0E759FA4B0C941C4388E169CD65
:1055F000089B07C091509E3320F4612F8C810E943C
:10560000EE0B109B19C001500E33C8F480B18823F3
:10561000C9F0632D8C810E94EE0B4C814F83BECD6F
:105620005C815F83BBCD6C816F83B8CD7C817F83D0
:10563000B5CD8C818F83B2CD9C819F83AFCDAC8162
:10564000AF83ACCDBC81BF83A9CD8F819885BCCD04
:10565000082FE3CD8C810E94EE0B3ECE089931C01D
:10566000109B3FCE80B1882309F43BCE8CEF9CE2A7
:105670000E946F1E8093032FE0EDF9E2EF83F8871D
:1056800000E087E3E82EAF81B8858D91AF83B887BE
:1056900090E00F2C02C0959587950A94E2F727B108
:1056A000312F811708F4382F6E2D631B26FF36C06B
:1056B00027E3402F802F0E9497150F5F003819F7BE
:1056C00010CE8CEF9BE20E946F1E8093F92B40ED71
:1056D00059E24F83588700E0AF81B8858D91AF8341
:1056E000B88790E00F2C02C0959587950A94E2F751
:1056F00037B1212F811708F4282F612F621B36FF45
:1057000009C0212F402F802F0E9497150F5F00386E
:1057100019F7A6CF802F0E94EE0BF8CF802F0E94A2
:10572000EE0BCBCF0091E02B023010F00A30B1F439
:105730004DE65BE063E080E10E94BF170DE65E9BF3
:105740001AC01092472044EC50E163E082E60E94C8
:10575000BF175C9900E0009382011ECE025A45E318
:1057600059E063E080E10E94BF178091E02B825DE9
:105770000E94E515E4CF49EC50E163E082E60E9427
:10578000BF1780B1873088F02AEC30E12F8338874B
:105790004F81588560E08DE20E94BF174F81588588
:1057A00060E08DE60E94BF17D6CF49EC50E14F83F1
:1057B0005887EECF5F9B1BC05E9919C08091F82B74
:1057C0006091D42BE0E88E9FC00111240E94A8179D
:1057D00080E48093CE2482E08093CD248091022FB8
:1057E0006091D52BF0E88F9FC001112499CE5E9B6C
:1057F00004C0809141088111B9C0109245201092D7
:10580000442010924320F89410920008109204084B
:105810002CE02093090882E19AE780932608909370
:1058200027081092000A2093090A30E13093010AF8
:105830008CE38093030A8DE08093000A84EF95E067
:105840008093260A9093270A1092400820934908D3
:10585000309341088CE28093430887E080930008EE
:10586000809120088823E1F38AE0809340087894AF
:1058700080910C0880FF6FC080910C0880FF1EC0D3
:105880008FEF80930C0821E13AE7209326083093AC
:1058900027085C9905C0809143208F5F8093432047
:1058A000809143208C3350F010924320809144200B
:1058B0008F5F8C3308F05EC0809344205E9962C095
:1058C000E0B134E0E39FF0011124EE57F24FC590B0
:1058D000D590E590F490CD2CDE2CEF2CFF24A091F8
:1058E000F92BB0E0A70196010E9438439B01AC015F
:1058F00062E080E00E94C616A091032FB0E0A701ED
:1059000096010E9438439B01AC0162E080E40E9452
:10591000C616C090280AD090290AF12CE12C7601F5
:10592000DD24CC248091680890916908C80ED91EA6
:10593000E11CF11C619AA701960165E088E00E94D4
:10594000C616C092D02BD092D12BE092D22BF092DF
:10595000D32B619804C0589902C05A9B89CF5E9995
:10596000E1CD87E0809347205A9ADCCD80E1809397
:10597000900182CF10924420809145208F5F8093C8
:1059800045209CCF80E38093CE2481E08093CD247A
:10599000809145200E94A8168AE30E94E515809117
:1059A00044200E94A8168AE30E94E51580914320B6
:1059B0000E94A816AECF05E0F9CD88B1803208F478
:1059C00063C02D982E982F9A089A109A2091F82B40
:1059D000203108F408988091022F803108F4109843
:1059E000089904C0109902C0089A109AA092D62B68
:1059F000A0E8B0E0A093DE2BB093DF2B269590912A
:105A0000F72B290F86959091012F890F089B55C080
:105A10009091F92B923008F450C03091032F9317D6
:105A200008F44BC02A9A1092E02B2093E12B0C9B98
:105A300004C0922F90959093E12B459B25C030E0B8
:105A400035952795319521953109322F2093E52BF6
:105A500090E095958795919581959109982F282F9C
:105A60008093E62B089B0EC0109B0CC0303AACF123
:105A700030523093E52B203EA4F5905E9093E62BB8
:105A80000E941B1E0E941B1E88B1803220F45E996A
:105A900002C05F9B47C09091032F8091F92B89171B
:105AA00008F4892F82958F7090B1891708F0D2C0C1
:105AB00090B1981B892F80B935C0109BBECF9091B3
:105AC000032F923008F4B9CF2A9AF092E02B8093FA
:105AD000E12B149BB2CF982FADCFB0E8B093E52B5C
